:100000000C9464000C94221C0C942C1C0C94361C34
:100010000C94401C0C944A1C0C94541C0C945E1CB4
:100020000C94941C0C9481000C9481000C944A1A3A
:100030000C949C190C94341A0C94011C0C944719C0
:100040000C948B190C949E1C0C9481000C948100D0
:100050000C9481000C940C1D0C9481000C94810074
:100060000C943F1A0C9481000C9481000C94810034
:100070000C9481000C9481000C9481000C948100FC
:100080000C9481000C9481000C948100E7023503EC
:100090003B039403B103B703EF03BE04E504FB0481
:1000A000C507F907550869088F0892089B08CC080E
:1000B00029096009630989098C099709C909330A63
:1000C000620A00081C18141011241FBECFEFD0E1E3
:1000D000DEBFCDBF11E0A0E0B1E0ECE6F2E402C08B
:1000E00005900D92A031B107D9F713E0A0E1B1E07E
:1000F00001C01D92AB31B107E1F70E9483000C945F
:1001000035210C940000C7EED0E1DEBFCDBF8FB724
:10011000F894182F4BE150E06FEF70E089E491E024
:100120000E942E218FEF8093E0028093170381E0DD
:100130008EBD88E080BF83E083BF2CB53DB54AE724
:100140008CB59DB58217930708F441509C01442358
:10015000B9F792B782B78917E9F32CB53DB592B7D5
:1001600082B78917E9F38CB59DB5821B930B409636
:1001700025E0969587952A95E1F79093E202809382
:10018000E10213BE83B78EBD8EB580BF12BE1DBC0B
:100190001CBC8FEF86BF86B780937C0080B7282F6A
:1001A00033272770307021153105C1F7D29AD19AC3
:1001B000D09ADA9AD99AD89A25BB8FEF84BBD49873
:1001C000DC9816B83DBD2CBD87B7846087BF8EB55F
:1001D000887F84608EBD0E94A10299278823D9F769
:1001E00080936E0180934701809313028FEF809379
:1001F000A601E4E3F1E09F01275F3F4F8FEF9FEF00
:1002000080839183128233962E173F07BCF70E949A
:10021000D016DC01CB018093860280910001909181
:1002200001010196AA27BB278093B8019093B901D9
:10023000A093BA01B093BB0180B7886080BF8BE008
:1002400083BF86EE81BF87B7826087BF0E9482131B
:100250008BEA92E090932C0180932B018E98B89AB0
:100260008C988FEF8093C201E5E7F2E0CF0103960F
:1002700011928E179F07E0F7B89AD69AD59A0E94E6
:10028000B90B9093C8018093C7010E940D19298B67
:100290003A8B4B8B5C8B6D8B7E8B8F8B988F88E032
:1002A000DE011996FE01719601900D928A95E1F793
:1002B00088E0DE011196FE01399601900D928A9533
:1002C000E1F788E0ABE7B2E0FE01319601900D92D4
:1002D0008A95E1F78091080199279093B201809364
:1002E000B1018FE1809370028AE1809384020E94C1
:1002F0000D1929833A834B835C836D837E838F83BF
:10030000988788E0DE011996FE01319601900D92E2
:100310008A95E1F788E0DE015196FE013996019059
:100320000D928A95E1F788E0ABE7B2E0FE017196A5
:1003300001900D928A95E1F7E2E8F2E0DF0117976C
:100340009F01245030409C9180818D939083319700
:100350002A173B07C4F781E080936F011092F702E0
:100360008093B40110927A020E94A1028823E1F7DF
:100370001FBF789420910001309101012093EE027B
:10038000432F55274093ED02A09AA89800E010E073
:100390000093F0020093EF0285E0E82EF12CE0924A
:1003A000F2020093F10283E680931A0384E090E066
:1003B0008093FB020093FA022093FD024093FC021B
:1003C00061E0862F0E94CC0C882319F58FB7F89432
:1003D000282F33278091120190911301892B11F05E
:1003E0002FBF14C081E090E090931301809312011D
:1003F0002FBFDD9A0E941D18DC01CB0124E130E003
:1004000040E050E0BC01CD010E944E1780E090E03A
:1004100012C062E081E00E94E40C882319F089E0B8
:1004200090E009C061E0862F0E94E40C882311F05F
:10043000C80101C0C701892B11F00E949F0A8FB724
:10044000F894682F61C087B79927887B892B41F47E
:1004500080917D00282F33272B7F2115310519F03E
:1004600080E090E021C08DB19927AC0140745070BC
:1004700086FD11C08AB190919A00892B282F3327CD
:10048000287130702115310511F0CA010DC080911D
:10049000740082FF02C0C90107C0379B03C081E01E
:1004A00090E002C085E090E0282F87B799278370FD
:1004B0009070892BA1F080B7992787709070892B55
:1004C000D1F781B792B7891B8C3018F082B7853F7E
:1004D00018F082E090E005C083E090E002C085E083
:1004E00090E0E82F281708F4E22F85B7837EFF27D6
:1004F000EE53FF4F9491892B806285BF7894889545
:10050000F89485B78F7D85BF8091E0028F3F81F0A1
:10051000282F3327F901E75BFE4F80818093E002AB
:100520008F3F11F4809317038FEF8083C90102C0BE
:100530008FEF90E08F3F09F486CF6FBF0E94C20219
:100540007ECF8091E0028F3F79F0282F3327F90189
:10055000E75BFE4F80818093E0028F3F11F4809330
:1005600017038FEF808302C02FEF30E02F3F19F485
:1005700080E090E00895822F0E94C20281E090E026
:10058000089508958F929F92AF92BF92CF92DF927B
:10059000EF92FF920F931F93CF93DF93CDB7DEB708
:1005A000A0970FB6F894DEBF0FBECDBF282F9927B6
:1005B000AA27BB27FC014B9710F00C94700AEA5B4A
:1005C000FF4FEE0FFF1F0590F491E02D09948FB7B8
:1005D000F894E82EFF2481E00E94FA1801E010E070
:1005E00010931801009317011092190110924801FD
:1005F00010926C01EFBE8FB7F894E82EFF240E9492
:10060000F51510936501009364011092AA0189B752
:100610008F7B89BF80E488BF8AB780628ABF8AB730
:100620008F7E8ABF89B7806489BFEFBE8FB7F89489
:10063000082F11278091120190911301049719F44A
:1006400083E00E9401160FBF8FB7F894082F11277F
:10065000C09A80E00E9469140FBF8FB7F894282FCA
:10066000332782E08093760268C08FB7F894992789
:10067000109276026EC68FB7F8949927F090110108
:100680008FBF63E081E00E94E40C882369F18FB79B
:10069000F894082F1127109218011092170187B7AC
:1006A0008F7E87BF87B78F7D87BF83E00E946914E5
:1006B000C09A0FBF8FB7F894082F112710926501C9
:1006C000109264010E94F515C09A89B78F7B89BF8B
:1006D0000FBF1092130110921201DE98DD98DE9A7E
:1006E00081E00E94EB0D08C08FB7F894282F3327C4
:1006F00082E0809376022FBF0091D2011091D30146
:100700000E943C0F8091F4029091F502892B09F030
:10071000EAC68FEF80930901F801838599274F2D51
:10072000B8010E947811DFC68FB7F894282F3327BD
:10073000122F80911603882311F02FBFD4C621E019
:10074000209316038091120190911301049721F4D4
:10075000822F0E948C0D03C084E00E94EB0D1FBF0E
:10076000C2C68FB7F894992710921603F2C58FB7B7
:10077000F894992700911401002309F0EAC58FBF6E
:1007800080B39927A6E096958795AA95E1F7182F4B
:1007900011708091CA019091C9018917E1F0191770
:1007A000D1F484E090E090931301809312018FB70D
:1007B000F894282F332781E0809314012FBF60E045
:1007C00070E08DE10E946E0E0E947A18C09AC09867
:1007D000802F0E94EB0D1093CA0185E0A5C58FB74D
:1007E000F8949927209102018FBF332722303105D9
:1007F00009F469C02330310544F42115310571F045
:100800002130310509F44AC06EC62330310509F4A0
:1008100076C02430310509F4AEC065C6C0988FB7E4
:10082000F894E82EFF248091120190911301029711
:1008300099F583E090E0909313018093120168E1B1
:1008400070E08DE10E946E0E11E01093C9011092CC
:10085000140180B39927F6E096958795FA95E1F70C
:1008600081238093CA0185E00E94EB0D812F0E94B5
:1008700001166FE772E08CE10E946E0E0E943C1838
:100880000E944E1866E57AE287E10E946E0E6FEFD5
:1008900070E885E10E946E0EEFBE25C6C09886E026
:1008A0000E9401160E943C180E944E180E947A185D
:1008B000C09AC09883E00E940116C09A81E00E940D
:1008C000691484E031C5C0988FB7F894E82EFF24EE
:1008D00060E0862F0E94E40C082F1127002311F0FE
:1008E000EFBE0AC0EFBE83E50E94950E802F0E94E6
:1008F000950E802F0E94950EC09A82E039C08FB766
:10090000F8949927209117018FBF332724303105A0
:1009100071F02530310524F42230310529F027C04B
:100920002830310539F023C00E94270EDCC50E9413
:100930004116D9C5C09889E00E940116C09A83E08B
:100940000E9469148FB7F894282F332781E090E034
:1009500090931801809317012FBF8FB7F894282F19
:10096000332783E0809311012FBF82E0DDC483E051
:100970000E946914B8C50E943715B5C58FB7F894A1
:10098000082F112780912D0190912E01609138023E
:1009900070913902E091F802F091F9021092390257
:1009A000109238021092F9021092F80210922E0161
:1009B00010922D011092D6011092D50120E0AC01C9
:1009C000CF010E947A150FBF8EC58FB7F894282FDC
:1009D00033278091A5018093050182E08093160161
:1009E0002FBF809105019927892B09F07CC5B89A02
:1009F000C09886E099C4A0912B01B0912C019C90E5
:100A00009D01290D311DF9018081881F8827881FCC
:100A10009B968C939B97F90180818F7799968C9305
:100A2000999721503040F901808198968C93E090FD
:100A30002B01F0902C01F7018281482F5527569504
:100A4000479556954795437050708FB7F8949927FE
:100A500020916F018FBF222309F462C042305105FB
:100A600041F5AA24BB2476E0C72ED12CCE0CDF1C86
:100A7000F60181819927182F0027F7018681992790
:100A8000082B192B0E9405140817190769F0F601A5
:100A900081819927382F2227F70186819927282BD2
:100AA000392B2F5F3F4F19F441E0A42EB12C850163
:100AB00040C043305105D9F588E0DE015996EBE797
:100AC000F2E001900D928A95E1F788E0DE015196FF
:100AD000FE01799601900D928A95E1F788E0DE019A
:100AE0001996FE01719601900D928A95E1F788E0C2
:100AF000DE011196FE01399601900D928A95E1F77B
:100B000026E030E0E20EF31E00E010E048E050E0A6
:100B1000BE016F5F7F4FC7010E942121892B49F4DD
:100B200001E010E006C04FBF21E030E068C000E007
:100B300010E0002309F420C23CE0391508F01CC283
:100B4000C0902B01D0902C013CE0E32EF12CEC0C5A
:100B5000FD1CF60182819927382F22278181992750
:100B6000282B392B232F332726952695B90163701F
:100B7000707042E050E0FA01A0E0B0E0C6010696D5
:100B800014E0369527951A95E1F72330310511F4D5
:100B900048E050E06330710511F4E8E0F0E08E0FBA
:100BA0009F1FA417B50744F4FC019A018191A80F77
:100BB000B11D21503040D1F7F60183819927682F6C
:100BC000582F8FEF8093F6028FB7F894482F20E0CC
:100BD00030E0E4E3F1E0808191818A179B0731F4F2
:100BE0008281851709F49FCF2093F6022F5F3F4F34
:100BF0003396243031057CF34FBF20E030E02223D0
:100C000009F0B6C19091F602322F8FB7F894282FD1
:100C10009F3F21F080911A01891719F490911A01D0
:100C200031E0892F9927FC01EE0FFF1FE80FF91F14
:100C3000EC5CFE4FA083B1836283332331F080915B
:100C40001A018F5F837080931A012FBF8FB7F894BA
:100C5000082F1127C6010E947E0CFC0180810FBF66
:100C6000982FF60183A5882309F482C19F3309F0E8
:100C70007FC1AA24BB24C6010E943C0B8C010E94A8
:100C8000B90B0817190731F0C6010E943C0B8F5FA2
:100C90009F4F19F411E0A12EB12CAA2009F468C1CC
:100CA000F601838599278234910509F465C0833460
:100CB00091051CF4459751F05BC18135910509F40C
:100CC000A2C08535910509F4F4C052C18091F102AA
:100CD0009927382F22278091F2029927282B392B28
:100CE0002430310508F444C1F70182819927582F37
:100CF000442783819927482B592B7091ED02872F28
:100D00009927382F22276091EE02862F9927282BCA
:100D1000392B4217530709F02BC18091EF02992715
:100D2000382F22278091F0029927282B392B211563
:100D3000310541F4A89A81E090E08093F00220937D
:100D4000EF0207C0A89880E090E08093F0028093C3
:100D5000EF0287E090E08093E8021092E702872F8D
:100D60009927982F8827262F3327822B932B809320
:100D7000EA02892F992776C081E090E08093AC0148
:100D800000E010E00093AB018091F1029927382F29
:100D900022278091F2029927282B392B2093AE012C
:100DA000832F99278093AD018091ED029927382FE9
:100DB00022278091EE029927282B392B2093B0010E
:100DC000832F99278093AF0166E08DED91E00E941B
:100DD000F71226E0FC01ABEAB1E00D9001922A95F2
:100DE000E1F76FEF7FEF8DED91E00E94001362E677
:100DF0008DED91E00E94061346E06DED71E0802FCD
:100E00000E940913B5C08091F1029927382F22273B
:100E10008091F2029927282B392B2430310508F4D0
:100E2000A7C0F70182819927582F442783819927EA
:100E3000482B592B8091ED029927382F222780913A
:100E4000EE029927282B392B4217530709F090C03F
:100E500087E090E08093E8021092E7024093EA0274
:100E6000852F99278093E9028091EF029927382FE7
:100E700022278091F0029927282B392B2093EC020E
:100E8000832F99278093EB0266E08CE392E00E9427
:100E90000F1426E0FC01A7EEB2E00D9001922A9516
:100EA000E1F746E06CE372E08FEF9FEF0E941214CF
:100EB0005FC08FB7F894282F33278BB391E0892731
:100EC0008BBB2FBFF70182819927582F442783813D
:100ED0009927482B592B8091ED029927382F2227EB
:100EE0008091EE029927282B392B4217530709F0DE
:100EF0003FC08091250281FF03C08D7F8093250232
:100F00008091F1029927382F22278091F2029927A8
:100F1000282B392B20931001F70184819927582F12
:100F2000442785819927482B592B40931A03263053
:100F300018F0245020931001413021F480911001C9
:100F4000823030F44423A1F48091100180FF10C05E
:100F50000E940911DC01CB01EE2402E310E020E045
:100F600030E0AC01BD0181E00E94E910E092B701E0
:100F7000D0922C01C0922B018FB7F8949927109230
:100F8000AA018FBF0E942914AEC240916A01442376
:100F900049F58FB7F894282F3327E0907102F0902D
:100FA000720200917302109174028091420190913B
:100FB0004301A0914401B0914501E80EF91E0A1FBA
:100FC0001B1F2FBF8091870290918802A0918902F8
:100FD000B0918A0240936A019C01AD01C801B7013A
:100FE0000E945D130E940911DC01CB01BC01CD01FF
:100FF00047C00E9409117B018C018FEFA82E8FEF53
:10100000B82E8FEFC82E8FE7D82E60E08FB7F894F8
:1010100099276093D4018FBFE4E1F2E0BBE18B2E0E
:10102000912C8E0E9F1E808581FF1CC08081918136
:10103000A281B381A8019701281B390B4A0B5B0BD6
:10104000DA01C9012481358146815781281B390B7A
:101050004A0B5B0B2A153B054C055D051CF4590139
:101060006A0161E039968E169F06E8F6662309F458
:101070003AC21A141B041C041D042CF0C801B70149
:101080000E948B1130C2A0928702B0928802C09257
:101090008902D0928A0281E080936A01A6019501BB
:1010A000C801B7010E945D131EC29091BD018091DD
:1010B0000901981709F417C290930901892F9927FC
:1010C000892B19F40E9457110EC28FEF80930901EA
:1010D0000AC28FB7F894282F332780918302809318
:1010E0000C0183E080931E012FBF10910C0180E062
:1010F0000E944F10882309F4F6C190912201992390
:1011000009F0F1C182E08093CF019093E3020E9445
:10111000651081E08093220110936B01E4C10E946D
:101120002F11E1C180912101813009F0DCC11D98AE
:10113000159880E1F9C080E00E94430F10922101D0
:1011400080912001813011F40E942F118FB7F89403
:1011500099271092200110921F01FBC080E090E0BF
:1011600036C0802F869586958695E82FFF27ED5E01
:10117000FD4F202F277081E090E002C0880F991F5B
:101180002A95E2F7982F9095808189238083009398
:101190001D01802F992736C010922201C0906B014B
:1011A000B090BC01E0906801F09069018FB7F894AD
:1011B000D82E80911E018330C9F580910C018C15C9
:1011C000A9F580911302882349F681E090E0892BEC
:1011D00019F580911D01082F11270F5F1F4F013056
:1011E000110511F400E010E0802F0E9442118823C5
:1011F00009F0B7CF80911D0199270817190769F7E2
:101200008FEF90E0809383028FEF80930C0181E059
:1012100080931E018DE008C081E080930C01109244
:101220001E0180931F018FE00E94EB0DDFBE8C2D0D
:101230009927892B09F057C18701BB2021F00FEFB7
:101240001FEF0E949F0A8091B7018A3008F04BC1BE
:10125000FCC08FB7F894282F33278091B301809377
:101260000D01A3E0FA2EF09224012FBF80910D0111
:101270009927009719F0019789F035C1159A1D9AA1
:101280000E940911DC01CB01F1E0EF2E0AE010E031
:1012900020E030E0AC01BD0182E00FC0A09AA89A26
:1012A0000E940911DC01CB01E1E0EE2E0AE010E022
:1012B00020E030E0AC01BD018F2D0E94E91013C188
:1012C0001092CF0110C18FB7F894282F3327809147
:1012D000660180930E0183E0809326012FBF009169
:1012E0000E0181E00E944F10882309F4FCC0809118
:1012F0002A01882309F0F7C011E082E08093CF0132
:101300001093E3020E94651010932A0100931903C1
:10131000EAC00E94C50FE7C080912901813009F021
:10132000E2C0A898A09887E10E94EB0DDCC081E0A4
:101330000E94430F1092290180912801813011F4FD
:101340000E94C50F8FB7F894992710922801109228
:1013500027018FBFC8C080E090E036C0802F8695FF
:1013600086958695E82FFF27E259FE4F202F27709C
:1013700081E090E002C0880F991F2A95E2F7982F2C
:10138000909580818923808300932501802F992760
:1013900036C010922A01C0901903B090A701E090C6
:1013A000E502F090E6028FB7F894D82E80912601DE
:1013B0008330C9F580910E018C15A9F580916E01DD
:1013C000882349F681E090E0892B19F58091250169
:1013D000082F11270F5F1F4F0130110511F400E096
:1013E00010E0802F0E943A10882309F0B7CF809137
:1013F000250199270817190769F78FEF90E0809367
:1014000066018FEF80930E0181E08093260184E1D5
:1014100008C081E080930E0110922601809327017D
:1014200086E10E94EB0DDFBE8C2D9927892B09F0F8
:101430005AC08701BB2021F00FEF1FEF0E949F0AC7
:101440008091B7018A3008F04EC0E82FFF27EE0FD9
:10145000FF1FE050FD4F8F5F8093B7010183812F05
:101460009927808340C0CC24DD2463EFE62E62E020
:10147000F62E8091F3028823B1F101E010E0F7012C
:101480004081842F8023C9F0812F8C0D282F332792
:10149000F901EE0FFF1FE952FE4FA081B1811082CA
:1014A0001182802F80954823F70140832130310538
:1014B00021F463E0CD010E94900A000F1F5F1830F5
:1014C000F0F211C080910F01E82FFF27EE0FFF1FF0
:1014D000E952FE4F41E0608171810E94A90A03C078
:1014E000822F0E94C102A0960FB6F894DEBF0FBEF5
:1014F000CDBFDF91CF911F910F91FF90EF90DF90C3
:10150000CF90BF90AF909F908F9008958FB7F89431
:10151000282F33278BB392E089278BBB2FBF0895E9
:10152000662351F40E94860A8091250281FF06C03D
:101530008D7F8093250208950E949F0A08958FB79A
:10154000F894282F33278BB394E089278BBB2FBFC8
:101550000895AF92BF92DF92EF92FF920F931F9385
:10156000CF93DF935B01D42EC82FDD27FE01EC0F54
:10157000FD1FE952FE4F1082118280910F019927C1
:10158000019663E070E00E94B82080930F0100E0B4
:10159000382F432F5527FA01E40FF51FE952FE4F6C
:1015A00080819181892B99F0832F869586958695E8
:1015B000E82FFF27ED50FD4F80819927232F2770BB
:1015C00002C0959587952A95E2F780FF0BC04F5F83
:1015D0005F4FCA0163E070E00E94B820382F0F5FB0
:1015E0000330B8F230930F01033018F083E080939A
:1015F0000F01E0910F01E330E8F4FF27EE0FFF1F2A
:10160000E952FE4F00811181F8018385E82EFF2405
:10161000C8010E943C0BBC01F80180818D509927C4
:10162000282FA8018E2D0E94470B882319F08AE1EC
:101630000E94EB0DC130D10561F0C230D1051CF420
:10164000CD2B21F00FC0229749F00CC0DD2051F4C2
:1016500007C06D2DC5010E94900A04C0DD2011F461
:101660000E94860ADF91CF911F910F91FF90EF901A
:10167000DF90BF90AF900895FC0187819927382FA4
:10168000222786819927282B392BC90108951F937A
:10169000CF93DF93EA01122F2D3118F082E090E012
:1016A00064C08B876E83872F99278F838FB7F894B9
:1016B000282F33278091B1019091B2012FBF8C83E5
:1016C000892F99272496898324970E94B90B8887AC
:1016D000892F9927289689832897FE013196818141
:1016E0009927382F222789819927282B392B206485
:1016F00038682983832F99278183135F18831D50AE
:1017000080910901882319F489E090E004C01092C7
:10171000090180E090E0892B71F4612FCE010E94D5
:10172000D10B9927282F882319F08FEF8093090177
:10173000822F99271AC0812F99279093D1018093E6
:10174000D001D0931C01C0931B01C0E08CE00E942B
:10175000EB0D80910901C81719F489E090E004C0ED
:10176000C093BD0180E090E09927DF91CF911F9158
:1017700008958FB7F89499272091060130910701B9
:101780008FBFC90108958FB7F894282F332790E0B1
:1017900080910A018F3F09F491E02FBF892F99278B
:1017A0000895DF92EF92FF920F931F93CF93DF93F1
:1017B000EC018FB7F894082F1127CE010E947E0C00
:1017C000FC018FE380830FBF1092F5021092F402A8
:1017D00011E0D12E6D2D82E00E94CC0C082F112734
:1017E000002309F080C080918602982F8D0D809390
:1017F00086029B838FB7F894E82EFF2462E08D2D3C
:101800000E94E40C882321F4EFBE81E090E062C0E6
:101810008FB7F894282F332784E0809376022FBF68
:10182000D093D301C093D201EFBEFE0131968181E6
:101830009927382F222789819927282B392B207225
:101840003C7C2983832F992781839927382F22274E
:1018500089819927282B392B21642983832F992764
:1018600081830CA708A709A7FE01BE9613821282E6
:10187000118280E890E0A0E0B0E08EA7D0927902DB
:101880004091D2015091D3018FB7F894282F33277C
:1018900080911701909118018830910511F00197FE
:1018A00011F02FBF15C082E090E090931801809353
:1018B0001701D09218035093B6014093B5010093DD
:1018C0002F012FBF0E94F60C882311F40E94270ECF
:1018D00080E090E09927C82F882311F00E943C0FE8
:1018E0008C2F992702C085E090E09927DF91CF9156
:1018F0001F910F91FF90EF90DF900895CF93DF93AA
:10190000FC01DC01119611968C9111979927618148
:1019100096958795969587958370907082309105FE
:1019200059F0833091051CF4009731F007C00397FC
:1019300029F448E050E004C0AC0102C04CE95FEF7C
:1019400011968C919927382F2227862F9927282B9B
:10195000392B24E0329F212D3327112422303105E9
:1019600069F02330310524F42115310539F008C020
:101970002330310529F488E090E004C0C90102C099
:101980008CE99FEF480F591F4A5F5F4F4E0F5F1F53
:10199000CA01DF91CF910895282F91E08FB7F89475
:1019A000382F662339F0E22FFF27EB58FD4F808157
:1019B000882331F4E22FFF27EB58FD4F608390E03E
:1019C0003FBF892F99270895982F8FB7F894482FF4
:1019D000552730E0E92FFF27EB58FD4F8081861710
:1019E00009F431E04FBF832F99270895CF9383E007
:1019F0000E94050D9927C82F882319F083E00E94C3
:101A00008C0D8C2F9927CF910895EF92FF920F9311
:101A10001F93CF93DF93F82E8FB7F894082F1127D9
:101A2000E02E61E080E00E94CC0CC82FDD27CC23A3
:101A300021F00FBF85E090E035C08C2F0E94590D3A
:101A4000882321F0F09202012C2F29C090911601D9
:101A5000992341F482E0809316019093050180E080
:101A600090E002C081E090E09927C82F882311F40C
:101A70000E94680D8C2F9927282F882311F4B89A7B
:101A8000C098822F9927282F882319F4F0920201F9
:101A900006C08FB7F8949927109275028FBFEFBEDA
:101AA000822F9927DF91CF911F910F91FF90EF9097
:101AB0000895982F80910501891739F480911601B6
:101AC000823019F481E090E0089580E090E008957C
:101AD0001F9310E0812F0E94800DBA9ABB98B99A8B
:101AE000B89A6C9A812F0E94860D6B986A9881E053
:101AF0000E94800D709A8DB18C7F8DB91F910895D1
:101B0000882311F06E9A08956E980895882311F035
:101B10006F9A08956F9808950F931F93CF93DF9353
:101B2000C82F8FB7F894082F11E0612F80E00E9432
:101B3000CC0C99278823D9F5C09302010E94590D36
:101B4000C82FDD27CC2311F086E00FC00E941D0EA8
:101B5000882311F40E94680D80911601882341F4B6
:101B6000109316018093A50188E00E94EB0D2BC015
:101B70009C2F8091C2018F3F21F480910401882322
:101B800009F4912F292F33272223E9F480910301AF
:101B90008F3F19F42093030107C080910401E82FBF
:101BA000FF27EE53FE4F2083109204010CC081E00A
:101BB00090E002C0880F991FCA95E2F720911501A5
:101BC000282B209315010FBF80E090E0DF91CF918B
:101BD0001F910F910895982F8FB7F894482F20E008
:101BE00030E0E92FFF27E75BFE4F80818F3F21F434
:101BF00080911703891711F421E030E0222399F432
:101C00008091E0028F3F19F49093E00207C0809129
:101C10001703E82FFF27E75BFE4F9083909317038E
:101C200081E090E002C080E090E0882311F485E03C
:101C300001C080E04FBF9927089580911601882345
:101C400019F480E090E0089581E090E00895FF921B
:101C50000F931F93CF93DF930091B5011091B601BD
:101C6000F80182A59927C82F882309F4CFE1C098ED
:101C700080916C018C1741F08C2F9927806E9068B1
:101C8000BC0185E10E946E0EC0936C01F801F080EA
:101C9000FA948FB7F894C82FDD2760E0862F0E9452
:101CA000E40C882311F0CFBF13C0CFBF8EE390E0C8
:101CB0009093CC018093CB018091CB010E94950E33
:101CC0008F2D9927AC0160E070E0C8010E94A50E3D
:101CD000DF91CF911F910F91FF900895FF920F9385
:101CE0001F93CF93DF93F82E8B018FB7F894C82FF3
:101CF000DD2760E0862F0E94E40C882321F0CFBF0F
:101D000080E090E00CC0CFBF8F2D0E94950E812FF8
:101D100099270E94950E802F0E94950E9927DF919A
:101D2000CF911F910F91FF9008951F93182F81E07D
:101D30000E94800D1FB980E090E0779981E0892BA7
:101D4000D1F38FB199271F910895CF93DF939C0111
:101D5000EA018FB7F894992750932E0140932D01F3
:101D60003093F9022093F80270933902609338029D
:101D70001092D6011092D5018FBF452B31F08FB153
:101D80000E94CD0E482F552704C087E00E94EB0D1E
:101D9000AE01CA01DF91CF9108958F929F92AF92C9
:101DA000BF92CF92DF92EF92FF920F931F93CF9348
:101DB000DF938FB7F8949927C090F802D090F9027A
:101DC0008090380290903902C091D501D091D6010F
:101DD0009E01265F3F4F40912D0150912E014217E9
:101DE000530708F49A018FBF59010894A108B1085C
:101DF000CA15DB05E8F47E01E80CF91C8E010C0D18
:101E00001D1DC114D10419F0F801808101C080E0CA
:101E10000E94950E8114910411F0F70180832196A0
:101E20000F5F1F4F0894E11CF11CCA15DB0548F336
:101E300081E00E94860D8FB7F894982FC114D104C9
:101E400031F0CC0EDD1EF60180818FB901C01FB8C4
:101E5000D093D601C093D5019FBF80E090E0DF9181
:101E6000CF911F910F91FF90EF90DF90CF90BF9097
:101E7000AF909F908F9008958FB7F8949927109204
:101E800077028FBF08951F93CF93DF93982F8FB75B
:101E9000F894182F80912401833009F05AC0809162
:101EA0000D01891709F055C080914701882309F079
:101EB00043C081E090E0892B09F041C0809123016B
:101EC000C82FDD272196C230D10511F4C0E0D0E043
:101ED0008C2F0E94B00F8823A1F4809123019927B1
:101EE000C817D90779F78FEF90E08093B3018FEF90
:101EF00080930D0181E08093240182E10E94EB0D2B
:101F000024C08C2F869586958695E82FFF27E95B60
:101F1000FE4F2C2F277081E090E002C0880F991FA0
:101F20002A95E2F7982F9095808189238083C0932A
:101F300023018C2F9927D9CF80E090E0BCCF82E09D
:101F400080930D011092240137981FBF80E090E02C
:101F500003C01FBF81E090E0DF91CF911F910895F2
:101F6000282F869586958695E82FFF27E95BFE4FFB
:101F7000277081E090E002C0880F991F2A95E2F750
:101F800020812823822F9927089580912901882371
:101F900069F481E00E94D90F9927282F882319F42A
:101FA00081E080932901822F9927089581E090E0B4
:101FB00008951F93CF93DF93C82F8FB7F894282FDE
:101FC0003327122F80912401882331F18091B301AE
:101FD0008C1711F42FBF48C08C2F0E94B00F88239C
:101FE000B1F48C2F869586958695E82FFF27E95BBF
:101FF000FE4FC77081E090E002C0880F991FCA951C
:10200000E2F72081282B208380E090E002C085E069
:1020100090E01FBF99272AC081E080932401C093DC
:10202000B3012FBF8FB7F8949927379A8FBF8FB717
:10203000F894C82FDD279C2F80910D01823099F4F0
:1020400080912401813021F482E10E94EB0D09C0CE
:10205000823049F48091B30180930D0183E0809335
:102060002401CFBF01C09FBF80E090E0DF91CF91FE
:102070001F910895282F869586958695E82FFF272E
:10208000E259FE4F277081E090E002C0880F991F4F
:102090002A95E2F720812823822F99270895982FE7
:1020A0008FB7F894282F3327422F80910D0189177D
:1020B00041F480912401833021F42FBF81E090E02E
:1020C00008954FBF80E090E008952091E302822FB1
:1020D0009927009721F08130910521F002C081E01D
:1020E00001C08FE1582F822F9927009711F0019797
:1020F00011F428E001C020E033278FB7F894E82FCF
:1021000080916D018E7F80936D01322F27B160E049
:1021100070E0922F929596959695937080E089172E
:1021200049F4852F8850863118F42F71521711F415
:1021300061E070E0862F880F20916D012D7F282BA4
:10214000952F9F71892F880F880F2378282B209334
:102150006D01892F992787B9406C21702295220F34
:10216000207E4F7D422B4861383059F58091E10245
:102170009091E20221E08638920718F087E090E023
:102180001FC0833C910518F086E090E019C08136AD
:10219000910518F085E090E013C08033910518F0A8
:1021A00084E090E00DC08831910518F083E090E064
:1021B00007C00C9718F082E090E002C080E090E049
:1021C000382F3770487F432B842F992786B9EFBF6C
:1021D0000895EF920F931F93E82F9E2D89E0E89FBB
:1021E000F0011124EC5EFD4F4083518362837383C1
:1021F0000483158326833783917080858E7F892B96
:10220000826080878BE00E94EB0D1F910F91EF9011
:1022100008958FB7F894982F82B7209130013091AC
:102220003101409132015091330106B601FE0FC0D9
:1022300081B7280F311D411D511D82B7280F311D57
:10224000411D511D2F5F3F4F4F4F5F4F04C0280F5F
:10225000311D411D511D9FBFCA01B90108958091D3
:102260002101882361F40E94D90F9927282F882300
:1022700019F481E080932101822F9927089581E04C
:1022800090E00895282F869586958695E82FFF275C
:10229000ED5EFD4F277081E090E002C0880F991F2E
:1022A0002A95E2F720812823822F99270895CF933A
:1022B000DF93C0911B01D0911C018091D001682F48
:1022C000CE010E94D10B482F5527442371F08FEF88
:1022D000809309018B85282F332780911B019091D2
:1022E0001C01BC01822F0E947811DF91CF910895CB
:1022F0009B0180910F01833068F4E82FFF27EE0FD8
:10230000FF1FE952FE4F608171816217730711F45C
:102310000E94A90A08956F927F928F929F92AF9226
:10232000BF92CF92DF92EF92FF921F93CF93DF93F2
:102330006B017C01AA24BB2464E172E0FB011085DF
:1023400011FF3AC12081318142815381D701C601F9
:10235000821B930BA40BB50B6480758086809780DD
:1023600086159705A805B90508F426C110FF03C016
:102370001D7F108709C0260D371D481D591DFB0103
:1023800020833183428353838A2D9927823091059C
:1023900009F4B2C0833091051CF4019729F016C1ED
:1023A000039709F4D8C012C180911A03992780932A
:1023B000FF021092FE028091B7018A3021F56AE196
:1023C00081E791E00E94F7122AE1FC01AAEFB2E056
:1023D0000D9001922A95E1F76FEF7FEF81E791E091
:1023E0000E94001365E781E791E00E9406134AE12D
:1023F00061E771E081E00E940913882311F00E94D7
:102400009F0A1092B70190911A03913009F036C0DB
:102410008FB7F894282F3327C22F80911E0188236D
:10242000C1F080918302882311F42FBF21C080E086
:102430000E944211882341F48091130281608093AD
:10244000130280E090E002C085E090E0CFBF9927C2
:1024500011C090931E01809383022FBF80911F01B2
:10246000882321F48EE00E94EB0D02C0909320019E
:1024700080E090E0882311F00E949F0A90911A0357
:10248000992309F0A3C08FB7F894282F3327C22FC0
:10249000809126018823C1F080916601882311F480
:1024A0002FBF22C0892F0E943A10882341F48091C7
:1024B0006E01816080936E0180E090E002C085E053
:1024C00090E0CFBF992712C091E0909326018093AE
:1024D00066012FBF80912701882321F485E10E94A6
:1024E000EB0D02C09093280180E090E0882309F46E
:1024F0006DC00E949F0A6AC08FB7F894282F30E001
:1025000090911E01992339F080910C01813021F4C2
:102510009150923008F431E02FBF332309F456C0B4
:102520008FB7F894C82FDD279C2F80910C01813044
:1025300009F040C080911E01813011F48DE02CC063
:10254000823009F037C08091830280930C0183E0D0
:1025500080931E012DC08FB7F894282F30E0909102
:102560002601992339F080910E01813021F4915098
:10257000923008F431E02FBF332341F18FB7F89444
:10258000C82FDD279C2F80910E01813099F4809116
:102590002601813021F484E10E94EB0D09C08230D4
:1025A00049F48091660180930E0183E080932601B7
:1025B000CFBF0CC09FBF0AC00894A11CB11C675FAD
:1025C0007F4FF4E0AF16B10408F4B8CE8BE00E9460
:1025D000EB0DDF91CF911F91FF90EF90DF90CF90A7
:1025E000BF90AF909F908F907F906F9008959C01C7
:1025F0006D3118F4C9010C96089580E090E00895BB
:10260000FC016683872F992787830895FC016387E0
:102610000895AF92BF92CF92DF92EF92FF920F9305
:102620001F93CF93DF93A82E7B01B42E82E08A15EF
:1026300018F481E090E036C0CA2DDD27CC0FDD1FF5
:10264000C952DE4FC880D980C114D10419F085E089
:1026500090E028C068837983EDE0BE0EFB01B08274
:10266000F3EFBF0E80910F018330D8F0FB0183851B
:10267000082F1127CB010E943C0BA0920F012B2D9C
:10268000A701BC01802F0E94470B9927282F882380
:1026900029F083E080930F01C882D982822F992785
:1026A00001C0C601DF91CF911F910F91FF90EF9074
:1026B000DF90CF90BF90AF900895EF92FF920F936D
:1026C0001F937B018C018FB7F894682F772781E0E7
:1026D0008093D401E0927102F0927202009373022F
:1026E00010937402209342013093430140934401BC
:1026F000509345016FBF0E9482131F910F91FF906D
:10270000EF9008950F931F93CF93DF9310E08FB74F
:10271000F894282F3327022F91B782B7981B86B7DA
:10272000992311F081FF02C02FBF6AC08091D401AC
:102730008823B1F10E940911DC01CB01C091710223
:10274000D0917202E0917302F09174028C1B9D0B88
:10275000AE0BBF0B209142013091430140914401E7
:102760005091450182179307A407B50720F01093F5
:10277000D40111E015C02C0F3D1F4E1F5F1F80912B
:10278000300190913101A0913201B0913301281BA9
:10279000390B4A0B5B0B273E31054105510510F003
:1027A00086EE05C0223010F482E001C0822F682F2F
:1027B000615000B601FCFDCF82B7861709F46F5F48
:1027C000209130013091310140913201509133011B
:1027D000DA01C901860F911DA11DB11D0196A11D30
:1027E000B11D82179307A407B50718F46091300153
:1027F000609561BF0FBF112319F08AE00E94EB0DB5
:10280000DF91CF911F910F9108958FB7F894992779
:102810002091C7013091C8018FBFC90108950E945E
:10282000F7120895FF920F931F938B01F42EBC01B2
:10283000C8010E94001366E6C8010E9406134F2DCE
:10284000B80182E00E94091399271F910F91FF9010
:1028500008951F93CF93DF938FB7F894C82FDD2788
:102860001C2F8091640190916501892B29F484E0EB
:102870000E946914CFBF29C01092AA012091700153
:10288000222331F080E090E0B79981E0892B49F470
:1028900081B1992766E0969587956A95E1F780FD65
:1028A00008C0222319F02150209370010E941A15AC
:1028B0000BC081E090E090936501809364011092D9
:1028C000700184E00E9469141FBFDF91CF911F91B6
:1028D0000895CF93982F8FB7F894282F3327C22FBE
:1028E000809102018917A9F02FBF81E090E037C0E5
:1028F0004093020181E090E002C0880F991F2A9561
:10290000E2F7809558235093150186E00E94EB0D65
:1029100023C08FEF80930201509115015523A1F040
:1029200040E0842F65E00E949820492F852F992749
:10293000242F3327022E02C0959587950A94E2F73B
:1029400080FDD6CF4F5FEDCF8FB7F89499271092C7
:1029500075028FBF0E94B114CFBF80E090E0CF918D
:1029600008950F931F93CF93C0911501CC2351F479
:10297000109102011F3F31F46C2F8C2F0E94E40C48
:10298000882319F481E090E051C001E000938502B2
:1029900080914801882311F0C093850280918502BF
:1029A000882309F441C08C2F0E94590D8111C09ACF
:1029B00080911601823071F590910501992351F5AE
:1029C000292F809103018F3F09F4202F2223F1F456
:1029D000109305018F3F79F0282F3327F901EE532B
:1029E000FE4F8081809303018F3F11F41093040107
:1029F0001083C90102C08FEF90E08093A50181E0B0
:102A00008093160188E00E94EB0D04C0109305012D
:102A1000909316010E941D0E9927882311F40E949D
:102A2000800D80E090E002C085E090E0CF911F91A2
:102A30000F91089582E090E0909365018093640186
:102A400021E02093AA0190E080910201843009F4F2
:102A5000922F992329F484E00E94050D882319F40C
:102A60000E943715089584E00E948C0D0895C09847
:102A700080912B0190912C0141E0BC018FE30E94D9
:102A800042150895DF92EF92FF920F931F93CF9319
:102A9000DF93082F7B01D42E10E08FB7F894C82F56
:102AA000DD27612F812F0E94E40C882321F0CFBF06
:102AB00080E090E017C0CFBF0064802F99279093EB
:102AC000CC018093CB018091CB010E94950E182FF1
:102AD0008D2D9927AC01B70180E090E00E94A50EF2
:102AE000812F9927DF91CF911F910F91FF90EF9048
:102AF000DF900895EF92FF920F931F938091CB0187
:102B00009091CC013091CB0186FF05C03F7B832F94
:102B10000E948E1D54C03E3309F051C0C09A80916E
:102B20001701909118010897D1F4C09889E00E948C
:102B30000116C09A83E00E94691481E090E09093AE
:102B40001801809317018FB7F894282F332783E05B
:102B5000809311012FBF82E00E94EB0D30C0809165
:102B60001803882349F484E090E09093180180933F
:102B700017010E94411623C083E00E94691483E07C
:102B800090E090931801809317010E94D016DC0109
:102B9000CB0166E371E00E94A4200B969093410163
:102BA000809340017C01002711270E941D18DC0141
:102BB000CB01A8019701BC01CD010E944E171F91C6
:102BC0000F91FF90EF9008950E94F515C09AC0985C
:102BD00088E00E94011688E00E940116C09A84E0F5
:102BE0000E9469140E942914089580E88093460188
:102BF0001092AA011092E4021092DF02109270016A
:102C000008951F93CF93DF93182F8FB7F894C82F91
:102C1000DD2760E0862F0E94E40C882321F0CFBFDF
:102C200080E090E005C0CFBF812F0E94950E9927CC
:102C3000DF91CF911F9108959C01FC0115A6BE96CE
:102C400013821282118280E890E0A0E0B0E0F901E6
:102C500086A708951F93182F81E090E090931801A4
:102C600080931701109248010E94B1148FB7F89415
:102C70009927109311018FBF82E00E94EB0D1F91E5
:102C800008950F931F93CF93DF9311E08FB7F894BC
:102C9000C82FDD270C2F80911701909118010897FC
:102CA000D1F489E00E94011683E00E946914C09A61
:102CB00081E090E090931801809317018FB7F8940A
:102CC000282F332783E0809311012FBF82E00E94D9
:102CD000EB0DCFBF34C0C09880911803882311F04A
:102CE00085E001C084E00E94011683FD05C080E0FC
:102CF0000E94011683FD10E0112319F083E090E09B
:102D000002C085E090E09093180180931701C09A6B
:102D10000FBF112341F010922F0183E00E9469142C
:102D20000E94A4160CC00E941D18DC01CB0120E4F7
:102D300031E040E050E0BC01CD010E944E17DF9130
:102D4000CF911F910F910895CF92DF92EF92FF9252
:102D50000F931F938FB7F894C82EDD240E94D016CE
:102D6000DC01CB0166E470E00E94A4200B969093F6
:102D70001503809314037C01002711270E941D185E
:102D8000DC01CB01A8019701BC01CD010E944E17C7
:102D9000CFBE1F910F91FF90EF90DF90CF900895DD
:102DA0002F923F924F925F926F927F928F929F925B
:102DB000AF92BF92CF92DF92EF92FF920F931F9349
:102DC000CF93DF93CDB7DEB728970FB6F894DEBF69
:102DD0000FBECDBF2090B8013090B9014090BA012C
:102DE0005090BB016624AEE4AA2EF3E8BF2EC62C99
:102DF000D62CE62CF62C062D162D222D332D442D07
:102E0000552D662D762D862D962D0E940F1F298318
:102E10003A834B835C836D837E838F839887822E76
:102E2000932EA42EB52E24013501769467945794E1
:102E3000479400E20E940320A22EB32EC42ED52E6A
:102E4000C601B501640D751D861D971D97FF05C050
:102E50009F776F5F7F4F8F4F9F4F6093B801709345
:102E6000B9018093BA019093BB0128960FB6F894EC
:102E7000DEBF0FBECDBFDF91CF911F910F91FF90AD
:102E8000EF90DF90CF90BF90AF909F908F907F900A
:102E90006F905F904F903F902F9008950F931F93E6
:102EA000DC01CB016FB7F894062F11278093C30183
:102EB0009093C401A093C501B093C6012093BE01B5
:102EC0003093BF014093C0015093C1010E946C1721
:102ED0000FBF1F910F910895AF92BF92CF92DF92D3
:102EE000EF92FF920F931F93CF93DF930E941D18D1
:102EF0007B018C018091C3019091C401A091C50117
:102F0000B091C601A090BE01B090BF01C090C001B9
:102F1000D090C1019C01AD012A0D3B1D4C1D5D1DD2
:102F2000FA01E901CE19DF09E00BF10BE816F90609
:102F30000A071B0730F0281739074A075B0778F0A4
:102F400005C0281739074A075B0728F4E216F3067D
:102F50000407150720F0C0E0D0E0E0E0F0E0C13069
:102F600020E8D20720E0E20720E0F20748F180E005
:102F700090E8A0E0B0E0E80EF91E0A1F1B1FE092E7
:102F8000C301F092C4010093C5011093C60180E013
:102F900090E8AFEFBFEFE80EF91E0A1F1B1FC80F26
:102FA000D91FEA1FFB1FC093BE01D093BF01E0935E
:102FB000C001F093C101C0E0D0E8E0E0F0E014C04F
:102FC0008A0D9B1DAC1DBD1D8093C3019093C40150
:102FD000A093C501B093C6011092BE011092BF012B
:102FE0001092C0011092C101BE012CB53DB5C901BE
:102FF0008E199F0903968C179D0720F0B9016D5F0C
:103000007F4F02C06E0D7F1D6115710511F461E0E7
:1030100070E0615070407BBD6ABD80E186BF87B7BC
:10302000806187BFDF91CF911F910F91FF90EF904B
:10303000DF90CF90BF90AF9008958FB7F894682F2E
:10304000772780911102909112022CB53DB506B6FA
:1030500002FE03C001962CB53DB5AA27BB27442725
:103060005527DC0199278827822B932BA42BB52B7E
:103070006FBFBC01CD0108958FB7F89499272091B7
:1030800084028FBF85E0289FC0011124825D9E4F7E
:103090009064BC0188E10E946E0E0895CF938FB7B3
:1030A000F894C82F60E070E080916F01882321F0D0
:1030B0008091F702811161E0762F6627770F770FF5
:1030C000770F20E030E08091B401882321F08091D7
:1030D0007A02811121E0E4E0220F331FEA95E1F743
:1030E000622B732B626E726281E10E946E0ECFBF03
:1030F000CF910895CF93DF93CDB7DEB72C970FB65E
:10310000F894DEBF0FBECDBF8FB7F894282F3327BA
:1031100088E0DE011196EBE7F2E001900D928A95CE
:10312000E1F78091B1019091B2018987892F9927A8
:103130008A878091C7019091C8018B87892F992731
:103140008C872FBF2CE0AE014F5F5F4F60E080E6C1
:1031500091E00E94B4182C960FB6F894DEBF0FBE13
:10316000CDBFDF91CF910895AF92BF92CF92DF9202
:10317000EF92FF920F931F93CF93DF93EC01D62E24
:103180005A01F22EEE24C22E8FB7F894082F112781
:103190006E2D8E2D0E94E40C882321F00FBF80E05D
:1031A00090E01DC00FBFCD0DD11D8C2F80680E94F7
:1031B000950EE82ED695C7958C2F807C0E94950E93
:1031C000FF2059F0EC2DFF27EF19F109EA0DFB1D47
:1031D00080810E94950EFA94A9F78E2D9927DF9190
:1031E000CF911F910F91FF90EF90DF90CF90BF9004
:1031F000AF90089597B79F7D97BF90E296BF8823C1
:1032000019F08EB5806402C08EB58F7B8EBD87B7F6
:10321000806287BF80E090E00895AF92BF92CF9226
:10322000DF92EF92FF920F931F93CF93DF93CDB76F
:10323000DEB728970FB6F894DEBF0FBECDBF20E0F3
:10324000F091000132E14DE65CE46FE48091010110
:10325000A22EB32EC42ED52EE62E082F2A2D3B2DBE
:103260004C2D5D2D6E2D7A2D802F9F2F28960FB619
:10327000F894DEBF0FBECDBFDF91CF911F910F91AC
:10328000FF90EF90DF90CF90BF90AF9008951F9286
:103290000F920FB60F9211242F933F934F935F938A
:1032A0006F937F938F939F93AF93BF93EF93FF930E
:1032B00083B783BF00B600FCFDCF81B79927019685
:1032C0009C01442755278091300190913101A091B4
:1032D0003201B0913301820F931FA41FB51F809359
:1032E000300190933101A0933201B093330178946F
:1032F0000E948213FF91EF91BF91AF919F918F91A7
:103300007F916F915F914F913F912F910F900FBEE1
:103310000F901F9018951F920F920FB60F921124C5
:103320008F9383B783BF00B600FCFDCF8F910F90C2
:103330000FBE0F901F90189578941F920F920FB6A2
:103340000F9211242F933F934F935F936F937F932B
:103350008F939F93AF93BF93CF93EF93FF9387B7D1
:103360008F7E87BF78948FB7F894C82F8091BE0165
:103370009091BF01A091C001B091C1010097A1053A
:10338000B10509F05CC0809117019091180185305A
:103390009105B9F18630910530F48330910549F0FB
:1033A000049731F13AC08730910549F1089701F14E
:1033B00034C080B3992726E0969587952A95E1F742
:1033C00080FF13C084E090E0909318018093170170
:1033D0000E941D18DC01CB0127E030E040E050E006
:1033E000BC01CD010E944E1718C00E94A41615C042
:1033F0000E94F60C882389F40E9441160EC080E0DA
:103400000AC089E00E94011681E00E94FA1883E058
:103410000E94691487E00E942A16809112019091FF
:103420001301019771F482E090E09093130180936F
:103430001201DE98DE9A80E00E948C0D02C00E948C
:103440006C17CFBFFF91EF91CF91BF91AF919F913B
:103450008F917F916F915F914F913F912F910F903D
:103460000FBE0F901F90189578941F920F920FB671
:103470000F9211240F900FBE0F901F901895789403
:103480001F920F920FB60F9211240F900FBE0F9044
:103490001F90189578941F920F920FB60F921124D7
:1034A0009F92AF92BF92CF92DF92EF92FF920F93D3
:1034B0001F932F933F934F935F936F937F938F93BC
:1034C0009F93AF93BF93CF93DF93EF93FF93C6B5D3
:1034D000D7B5BB248FB7F894982E0E941D189B0176
:1034E000AC01CB018C1B9D0BAA27BB2769017A017C
:1034F000C81AD90AEA0AFB0A8091170190911801AB
:103500008530910521F0069709F4CBC0F5C086E01F
:1035100090E0909318018093170171E0A72EA0927C
:10352000A801B09219018B2D0E94FA182091B501C3
:103530003091B601F901BE96C382BB27AF2D9E2DF7
:103540008D2D8283C701AA27BB2781838F2D9927C1
:10355000AA27BB27F90186A7E091B501F091B60132
:1035600085A5882309F485C080818550682F772739
:103570008F01060F111DF80180819927AA27BB270B
:10358000582F44273327222781819927AA27BB2731
:10359000DC0199278827282B392B4A2B5B2B82812A
:1035A0009927AA27BB27BA2FA92F982F8827282B1E
:1035B000392B4A2B5B2B83819927AA27BB27282BE2
:1035C000392B4A2B5B2B2C193D094E095F092383AC
:1035D000BB27A52F942F832F8283CA01AA27BB273D
:1035E0008183852F9927AA27BB278083C09824E051
:1035F000A80180E090E00E94B418C09AF801808190
:103600009927AA27BB27582F4427332722278181B0
:103610009927AA27BB27DC0199278827282B392B34
:103620004A2B5B2B82819927AA27BB27BA2FA92F68
:10363000982F8827282B392B4A2B5B2B838199279E
:10364000AA27BB27282B392B4A2B5B2B2C0D3D1D82
:103650004E1D5F1D2383BB27A52F942F832F8283AD
:10366000CA01AA27BB278183852F9927AA27BB27B1
:103670008083E091B501F091B601818185FF02C0A0
:10368000A092480183E00E94691487B78F7E87BFAC
:1036900080B39927F4E096958795FA95E1F780FD38
:1036A00093C01092A80181E00E94FA18E091B50140
:1036B000F091B601818185FF13C087E090E090937F
:1036C0001801809317010E941D18DC01CB0120E036
:1036D00031E040E050E0BC01CD010E944E1703C034
:1036E00080E00E942A1680B39927E4E0969587959A
:1036F000EA95E1F780FF68C080911901882309F0FD
:1037000040C09091A8019923E1F581E08093A80140
:10371000892F0E94FA1880B3992774E096958795AF
:103720007A95E1F761E0B62EB8224091DF02483089
:10373000C0F48091E402840F912D911D9C01887F3B
:103740009370281BE22FFF27EE0FFF1FEE0FFF1FC6
:10375000E557FD4FC082D182E282F3824F5F4093F2
:10376000DF0281E080931901D093CE01C093CD0197
:1037700080B3992734E0969587953A95E1F780FDD7
:1037800023C08091A8018130F9F41092A8010E9411
:10379000FA1810921901BB20B9F48091CD019091D3
:1037A000CE01C81BD90B2A9778F48091DF028823B9
:1037B00019F081508093DF028091B5019091B6019C
:1037C000009711F00E941C169FBEFF91EF91DF91B0
:1037D000CF91BF91AF919F918F917F916F915F91A9
:1037E0004F913F912F911F910F91FF90EF90DF909C
:1037F000CF90BF90AF909F900F900FBE0F901F90F3
:10380000189578941F920F920FB60F9211242F9350
:103810003F938F939F938FB7F894282F33278091EE
:10382000110290911202019690931202809311025C
:103830002FBF9F918F913F912F910F900FBE0F90AF
:103840001F9018951F920F920FB60F9211240F9090
:103850000FBE0F901F9018951F920F920FB60F92E8
:1038600011240F900FBE0F901F9018951F920F926A
:103870000FB60F9211240F900FBE0F901F90189546
:103880001F920F920FB60F9211240F900FBE0F9040
:103890001F9018951F920F920FB60F9211240F9040
:1038A0000FBE0F901F9018951F920F920FB60F9298
:1038B00011240F900FBE0F901F9018951F920F921A
:1038C0000FB60F9211242F933F934F935F936F93F3
:1038D0007F938F939F93AF93BF93EF93FF938091C9
:1038E000640190916501019749F482E090E0909322
:1038F0006501809364010E941A1505C080917001D2
:103900008F5F80937001FF91EF91BF91AF919F9175
:103910008F917F916F915F914F913F912F910F9078
:103920000FBE0F901F9018951F920F920FB60F9217
:1039300011240F900FBE0F901F9018951F920F9299
:103940000FB60F9211242F933F934F935F936F9372
:103950007F938F939F93AF93BF93EF93FF938FB119
:10396000282F3327E0913802F0913902309739F04F
:103970008091D5019091D601E80FF91F20838091A5
:10398000D5019091D60101969093D6018093D501EF
:1039900080E00E94860D30E08091D5019091D601A3
:1039A00040912D0150912E018417950708F431E0C4
:1039B000332319F00E94CD0E1EC0809138029091E1
:1039C0003902E091F802F091F90210923902109256
:1039D00038021092F9021092F80210922E01109201
:1039E0002D011092D6011092D5012FB1232FBC01C9
:1039F000CF010E947A15FF91EF91BF91AF919F91F6
:103A00008F917F916F915F914F913F912F910F9087
:103A10000FBE0F901F9018951F920F920FB60F9226
:103A200011242F933F934F935F936F937F938F93C3
:103A30009F93AF93BF93EF93FF9364B175B1789465
:103A40008FB7F894282F332780916D01482F469522
:103A50004170582F51702FBF552399F5339880919D
:103A6000CF0199278130910519F0029749F03FC0A5
:103A7000442341F070933B0260933A0283E11EC0FD
:103A8000442319F40E94651032C05093CF018091F5
:103A9000E3029927009719F0019749F028C0509345
:103AA000BC01709369016093680181E107C0509384
:103AB000A7017093E6026093E50288E10E94EB0D96
:103AC00016C08FB7F89499278FBF8FB7F894482FF7
:103AD000552786B180618777282F332726B98F7BBA
:103AE000282F332726B98068992786B94FBFFF91C1
:103AF000EF91BF91AF919F918F917F916F915F9166
:103B00004F913F912F910F900FBE0F901F901895DE
:103B10008FB7F894992708958FBF0895EF92FF9279
:103B20000F931F93CF93DF937B0199278E339105DA
:103B300009F46EC1CF9709F06BC1C0912B01D091F0
:103B40002C01588150936701809164019091650127
:103B50008530910509F450C08630910518F402971C
:103B600029F050C1069709F49BC04CC185E090E054
:103B70009093650180936401252F33272F5F3F4F7A
:103B800040914601842F99278217930794F180E092
:103B900090E0B79981E0892B69F481B1992766E0BB
:103BA000969587956A95E1F780FD04C0451B4150C5
:103BB00040934601209167012A32D8F4222391F0E4
:103BC000BE016F5F7F4F283018F047E050E063C0C0
:103BD00086E090E09093650180936401822F99279D
:103BE000AC0159C02093AA01C09A84E00E946914D4
:103BF00006C10E94E4150CC186E090E09093650137
:103C0000809364018091B401882309F43DC08091C0
:103C10007A028823C9F5898185FF36C046E0E42E03
:103C2000F12CEC0EFD1EF70181819927182F00273A
:103C30008E819927082B192B0E9405140817190744
:103C400061F0F70181819927382F22278E819927EA
:103C5000282B392B2F5F3F4FB9F489819927877023
:103C60009070019789F4C09AC0988AE00E9401166A
:103C7000C09AC0982896809167018750482FBE014E
:103C80008FE30E944215C4C0289680916701875037
:103C90009927AC01BE0180E090E00E94A50EB8C05B
:103CA000C09A80917001882319F484E00E946914FD
:103CB00080917001882331F080E090E0B79981E035
:103CC000892B89F481B1992706E0969587950A9505
:103CD000E1F780FF08C09091DF02992321F08091E5
:103CE00067018B3038F480912B0190912C010E9458
:103CF0001C1642C0913021F560912B0170912C016E
:103D00008091E402E82FFF27EE0FFF1FEE0FFF1F49
:103D1000E557FD4F2081318142815381FB01BE96E1
:103D20002383BB27A52F942F832F8283CA01AA2721
:103D3000BB278183852F9927AA27BB27FB0186A74D
:103D40008091E402992701969C01287F3170821BA3
:103D5000930B8093E4028091DF0281508093DF0215
:103D6000882351F080912B0190912C010E941C1608
:103D70001092E4021092DF0280916701FE01E80FC9
:103D8000F11D8081881F8827881FC9F1EF28B9F1AC
:103D90000981077020912B0130912C01023049F5E7
:103DA000A091B501B091B601109719F1809117015A
:103DB000909118010797E9F413969C911397F901D4
:103DC00083818917B1F487B78F7E87BF908181E0A7
:103DD0009C968C939C97E90FF11D82913196989651
:103DE0008C93989780818F7799968C9380E00E942E
:103DF0002A16013021F489E00E94EB0D09C00E94CF
:103E0000291406C01092AA01C09A84E00E94691485
:103E1000DF91CF911F910F91FF90EF900895A0E354
:103E2000B0E0E5E1FFE10C94EA20222E332E442E8F
:103E3000552E662E772E882E992E29863A864B8609
:103E40005C866D867E868F86988AA98ABA8ACB8A96
:103E5000DC8AED8AFE8A0F8B188FA984BA84CB8402
:103E6000DC84A9A6BAA6CBA6DCA6860175018FEFD5
:103E70009FEFA0E0B0E0E822F9220A231B231601FD
:103E800044245524A988BA88CB88DC88ADA6BEA670
:103E9000CFA6D8AAA822B922CA22DB228DA59EA528
:103EA000AFA5B8A93D0188249924C801B701A6018E
:103EB00095010E94CB2069A37AA38BA39CA3C80180
:103EC000B701A40193010E94CB206DA37EA38FA311
:103ED00098A7C201B101A60195010E94CB207B01E8
:103EE0008C01C201B101A40193010E94CB209B016E
:103EF000AC01A9A0BAA0CBA0DCA0C601AA27BB2711
:103F0000ADA0BEA0CFA0D8A4A80EB91ECA1EDB1EAD
:103F1000AE0CBF1CC01ED11EADA2BEA2CFA2D8A6A1
:103F2000AE14BF04C006D10620F4205030404F4FDD
:103F30005F4FCDA0DEA0EFA0F8A4C701AA27BB2742
:103F4000820F931FA41FB51F8D8F9E8FAF8FB8A3B5
:103F5000A6013327222789A19AA1ABA1BCA1A070F9
:103F6000B070280F391F4A1F5B1F298F3A8F4B8F64
:103F70005C8FA98CBA8CCB8CDC8CED8CFE8C0F8D7D
:103F800018A1ED82FE820F8318872D893E894F8903
:103F9000588D69A57AA58BA59CA50E94CB203B01D5
:103FA0004C018D859E85AF85B889BC01CD012DA5BD
:103FB0003EA54FA558A90E94CB20DC01CB01680E7D
:103FC000791E8A1E9B1E8D819E81AF81B885860DCC
:103FD000971DA81DB91D8D839E83AF83B8876D8102
:103FE0007E818F819885E62EF72E082F192F2A2D96
:103FF0003B2D4C2D5D2D6E2D7F2D802F912FE2E1DD
:10400000E0960C9406218F929F92AF92BF92CF922E
:10401000DF92EF92FF920F93CF93DF93CDB7DEB78E
:1040200068970FB6F894DEBF0FBECDBF002309F42A
:104030005DC029873A874B875C876D877E878F872E
:10404000988B20E2201B1216CCF58D859E85AF85BE
:10405000B889AC01BD0104C0440F551F661F771F0E
:104060002A95D2F7202F332727FD3095022E04C042
:10407000B695A795979587950A94D2F78D839E83D9
:10408000AF83B88789859A85AB85BC8504C0B69512
:10409000A795979587952A95D2F7842B952BA62BD4
:1040A000B72B89839A83AB83BC8329813A814B8167
:1040B0005C816D817E818F81988518C01D821E82F2
:1040C0001F821886822F992787FD909522273327F4
:1040D000281B390B8D859E85AF85B88904C0B695A0
:1040E000A795979587952A95D2F7DBCF298B3A8BA1
:1040F0004B8B5C8B6D8B7E8B8F8B988F29893A894C
:104100004B895C896D897E898F89988D68960FB6F9
:10411000F894DEBF0FBECDBFDF91CF910F91FF901E
:10412000EF90DF90CF90BF90AF909F908F900895C9
:10413000991B79E004C0991F961708F0961B881FF9
:104140007A95C9F780950895AA1BBB1B51E107C05A
:10415000AA1FBB1FA617B70710F0A61BB70B881F17
:10416000991F5A95A9F780959095BC01CD010895A6
:1041700097FB092E07260AD077FD04D0E5DF06D08D
:1041800000201AF4709561957F4F0895F6F7909589
:1041900081959F4F0895629FD001739FF001829F88
:1041A000E00DF11D649FE00DF11D929FF00D839FC6
:1041B000F00D749FF00D659FF00D9927729FB00D63
:1041C000E11DF91F639FB00DE11DF91FBD01CF0176
:1041D000112408952F923F924F925F926F927F9297
:1041E0008F929F92AF92BF92CF92DF92EF92FF9207
:1041F0000F931F93CF93DF93CDB7DEB7CA1BDB0BB3
:104200000FB6F894DEBF0FBECDBF09942A88398857
:1042100048885F846E847D848C849B84AA84B9845E
:10422000C884DF80EE80FD800C811B81AA81B9816A
:10423000CE0FD11D0FB6F894DEBF0FBECDBFED017E
:104240000895FB01DC0104C08D910190801921F4D7
:1042500041505040C8F7881B990B0895DC0101C0FC
:0C4260006D9341505040E0F70895FFCFEF
:10426C000100FFFFFFFF010022FFFFFF010201031E
:00000001FF
